:020000040800F2
:1000000078060020290200083B0200083D02000893
:100010003F020008410200084302000800000000FF
:100020000000000000000000000000004502000881
:10003000470200080000000049020008F50300081C
:100040004D0200084D0200084D0200084D02000854
:100050004D0200084D0200084D0200084D02000844
:100060004D0200084D0200084D0200084D02000834
:100070004D0200084D0200084D0200084D02000824
:100080004D0200084D0200084D0200084D02000814
:100090004D0200084D0200084D0200084D02000804
:1000A0004D0200084D0200084D0200084D020008F4
:1000B0004D0200084D0200084D0200084D020008E4
:1000C0004D0200084D0200084D0200084D020008D4
:1000D0004D0200084D0200084D0200084D020008C4
:1000E0004D0200084D0200084D0200084D020008B4
:1000F0004D0200084D0200084D0200084D020008A4
:100100004D0200084D0200084D0200084D02000893
:100110004D0200084D0200084D0200084D02000883
:100120004D0200084D0200084D0200084D02000873
:100130004D0200084D0200084D0200084D02000863
:100140004D0200084D0200084D0200084D02000853
:100150004D0200084D0200084D0200084D02000843
:100160004D0200084D0200084D0200084D02000833
:100170004D0200084D0200084D0200084D02000823
:100180004D0200084D02000800F002F800F03CF8B3
:100190000AA090E8000C82448344AAF10107DA45E2
:1001A00001D100F031F8AFF2090EBAE80F0013F0F8
:1001B000010F18BFFB1A43F001031847580700004E
:1001C00078070000103A24BF78C878C1FAD85207DF
:1001D00024BF30C830C144BF04680C6070470000C1
:1001E0000023002400250026103A28BF78C1FBD840
:1001F000520728BF30C148BF0B6070471FB500F0E1
:1002000083FB1FBD10B510BD00F039F81146FFF794
:10021000F5FF00F00BFB00F057F803B4FFF7F2FF17
:1002200003BC00F05FF800000C48016841F4700165
:1002300001600B4880470B480047FEE7FEE7FEE7FA
:10024000FEE7FEE7FEE7FEE7FEE7FEE7FEE700006B
:1002500005480649064A074B7047000088ED00E054
:100260000D040008890100087800002078060020AD
:10027000780200207802002070477047704775466A
:1002800000F02CF8AE4605006946534620F0070002
:10029000854618B020B5FFF7DBFFBDE820404FF0E2
:1002A00000064FF000074FF000084FF0000B21F060
:1002B0000701AC46ACE8C009ACE8C009ACE8C0092D
:1002C000ACE8C0098D46704710B50446AFF3008016
:1002D0002046BDE81040FFF7A0BF0000004870476F
:1002E0001800002001491820ABBEFEE726000200DE
:1002F000704700000349086000BF024909680029EF
:10030000FBD17047000000200CB500200190009048
:100310003448006840F480303249086000BF3148FA
:10032000006800F4003000900198401C0190009893
:1003300018B90198B0F5A04FF1D12A48006800F42F
:10034000003010B10120009001E0002000900098E2
:10035000012846D123484030006840F080502149B0
:10036000403108602048006840F440401E49086061
:100370001C48083000681B490831086008460068BE
:1003800040F4004008600846006840F4A05008604F
:100390001648091F0860081F006840F08070091F98
:1003A000086000BF0F48006800F000700028F9D016
:1003B00040F205600E4908600A480830006820F0E5
:1003C00003000849083108600846006840F0020050
:1003D000086000BF03480830006800F00C000828DF
:1003E000F8D10CBD003802400070004008544007AE
:1003F000003C02400448006820B103480068401EE9
:1004000001490860704700000000002010B5124844
:10041000006840F001001049086000200E490831D2
:1004200008600D4800680D4908400B4908600C48F9
:10043000091D0860081F006820F48020091F08605B
:10044000002005490C310860FFF75EFF4FF00060A7
:100450000449086010BD000000380240FFFFF6FEAE
:100460001030002408ED00E0102814D2DFE800F07E
:100470000814202C3844505C6874808C98A4B0BC5C
:100480006049096821F003015E4A1160114609685C
:1004900041F001011160B3E05A49096821F00C01F3
:1004A000584A11601146096841F004011160A7E043
:1004B0005449096821F03001524A11601146096817
:1004C00041F0100111609BE04E49096821F0C00124
:1004D0004C4A11601146096841F0400111608FE0FB
:1004E0004849096821F44071464A1160114609687B
:1004F00041F48071116083E04249096821F4406150
:10050000404A11601146096841F48061116077E04A
:100510003C49096821F440513A4A11601146096882
:1005200041F4805111606BE03649096821F4404183
:10053000344A11601146096841F4804111605FE05E
:100540003049096821F440312E4A1160114609688A
:1005500041F48031116053E02A49096821F44021B7
:10056000284A11601146096841F48021116047E072
:100570002449096821F44011224A11601146096892
:1005800041F4801111603BE01E49096821F44001EB
:100590001C4A11601146096841F4800111602FE086
:1005A0001849096821F04071164A1160114609681E
:1005B00041F08071116023E01249096821F0406127
:1005C000104A11601146096841F08061116017E01E
:1005D0000C49096821F040510A4A11601146096826
:1005E00041F0805111600BE00649096821F040415B
:1005F000044A11601146096841F08041116000BF52
:1006000000BF70470010024001B502E00098401E94
:10061000009000980028F9D108BD00B5012000F035
:100620000DF8022000F00AF846F66050FFF7ECFFE4
:1006300046F66050FFF7E8FF00BD000010B5044625
:100640001A48406920F0800018494861204600F0AF
:100650002FF91648406940F48070144948614FF4FE
:100660002F60FFF7D1FF1148406920F480700F49D7
:1006700048614FF42F60FFF7C7FF2107080E00F015
:1006800017F90A48406940F48070084948614FF4FE
:100690002F60FFF7B9FF0548406920F480700349D7
:1006A000486146F66050FFF7AFFF10BD00100240F2
:1006B00000B53748006840F0100035490860072051
:1006C000FFF7D2FE0820FFF7CFFE0920FFF7CCFE90
:1006D0000A20FFF7C9FE0B20FFF7C6FE0C20FFF72C
:1006E000C3FE46F66050FFF78FFF002000F0E0F8F1
:1006F000302000F0DDF82748406940F4807025493B
:1007000048614FF42F60FFF77FFF2248406920F4D3
:1007100080702049486146F66050FFF775FF302031
:1007200000F0C6F81B48406940F4807019494861E0
:100730004FF42F60FFF768FF1648406920F480707F
:100740001449486146F66050FFF75EFF202000F034
:10075000AFF81048406940F480700E4948614FF48A
:100760002F60FFF751FF0B48406920F48070094962
:10077000486146F66050FFF747FF2820FFF75EFF0D
:100780000C20FFF75BFF46F66050FFF73DFF00BD12
:10079000303802400010024010B504461A48406943
:1007A00040F0800018494861204600F081F8164862
:1007B000406940F48070144948614FF42F60FFF79E
:1007C00023FF1148406920F480700F4948614FF4BD
:1007D0002F60FFF719FF2107080E00F069F80A489B
:1007E000406940F48070084948614FF42F60FFF77A
:1007F0000BFF0548406920F480700349486146F6C4
:100800006050FFF701FF10BD0010024030B50546F3
:100810002C4604B930BD03E02078FFF7BDFF641C0F
:1008200020780028F8D100BFF4E70000FFF740FF70
:10083000184800684FF47A72B0FBF2F1481EB0F12C
:10084000807F00D31BE0481E4FF0E022506150171C
:100850000F22002807DA13071D0E0F4B00F00F04BC
:10086000241F1D5503E013071C0E0C4B1C5400BF26
:1008700000204FF0E02290610720106100BF08E0E7
:10088000FFF7CBFE06A0FFF7C1FF4FF4FA60FFF7BA
:1008900031FDF5E70400002018ED00E000E400E081
:1008A00053544D33324634303756455436000000E9
:1008B0001449496921F4F051124A516100F0800154
:1008C00021B11146496941F48051516100F0400164
:1008D00029B10C49496941F400610A4A516100F0AB
:1008E000200129B10749496941F48061054A5161F4
:1008F00000F0100129B10349496941F40071014A2E
:1009000051617047001002404FF04070E1EE100A54
:1009100070470000340900080000002018000000A3
:10092000C40100084C0900081800002060060000FF
:10093000E001000800000000007A030A0000000047
:0C09400000000000010203040607080983
:040000050800018965
:00000001FF
